:100000000C94CB010C94F3010C94F3010C94F301C8
:100010000C94F3010C94F3010C94F3010C94F30190
:100020000C94F3010C94F3010C94F3010C94242828
:100030000C94F3010C94F3010C94F3010C94F30170
:100040000C94CA2A0C94F3010C94782C0C94BF2CB9
:100050000C94F3010C94F3010C94F3010C94F30150
:100060000C94F3010C94F301000000006410B71D20
:10007000C8206E3BAC30D9269041DC76F4516B6BD6
:100080005861B24D3C7105502083B8ED44930FF098
:10009000E8A3D6D68CB361CBB0C2649BD4D2D3864E
:1000A00078E20AA01CF2BDBD6D6D004368616E6709
:1000B00065642050656E20776964746820746F20D1
:1000C000004E657720616363656C65726174696F6A
:1000D0006E3A20004E6577206D61782073706565FB
:1000E000643A20005047535445504D554C544950A4
:1000F0004C4945522C00504753544550535045529B
:100100005245562C0050474D4D5045525245562CA5
:1001100000504753495A452C0050474E414D452CFD
:100120000020616E6420646972656374696F6E207B
:10013000697320004368616E67656420647261774B
:1001400020646972656374696F6E206D6F646520E9
:10015000746F206265200020746F20616464726592
:100160007373200057726974696E6720496E74203A
:10017000002900526563616C63756C61746564206D
:100180007061676548656967687420696E2073747B
:100190006570732028002900526563616C63756C7B
:1001A000617465642070616765576964746820696B
:1001B0006E20737465707320280029002920616EF9
:1001C000642073746570735065724D4D2028005221
:1001D0006563616C63756C61746564206D6D5065F9
:1001E00072537465702028004C6F61646564206DE3
:1001F0006F746F722073746570206D756C746970A4
:100200006C6965723A004C6F61646564206D61636E
:1002100068696E65206E616D653A004C6F6164655A
:1002200064206D6F746F72207374657073207065D5
:1002300072207265763A004C6F61646564206D6D62
:1002400020706572207265763A004C6F6164656457
:10025000206D616368696E65206865696768743AD6
:10026000004C6F61646564206D616368696E652030
:1002700077696474683A002069736E27742061207E
:10028000636F6D6D616E642049207265636F676E88
:100290006973652E00536F7272792C20002C2070C8
:1002A000343A002C2070333A002C2070323A002C63
:1002B0002070313A00436F6D6D616E643A00436F98
:1002C0006D6D616E64206E6F742070617273656411
:1002D0002E00436865636B73756D206E6F74206DBF
:1002E000617463686564213A00504F4C4152475233
:1002F000415048204F4E21000000000024002700FC
:100300002A0000000000250028002B00000000004B
:100310002300260029000404040404040404020247
:100320000202020203030303030301020408102074
:10033000408001020408102001020408102000007F
:100340000007000201000003040600000000000096
:100350000000494E46494E4954594E414ECDCCCCF1
:100360003D0AD7233C17B7D13877CC2B329595E689
:10037000241FB14F0A000020410000C84200401C69
:100380004620BCBE4CCA1B0E5AAEC59D74006F0AF7
:10039000F528252E680A11241FBECFEFD8E0DEBF56
:1003A000CDBF12E0A0E0B1E0EAE0F0E702C00590C6
:1003B0000D92A43EB107D9F715E0A4EEB2E001C05A
:1003C0001D92A238B107E1F713E0C4E9D3E004C0FD
:1003D0002297FE010E94B237CE38D107C9F70E949A
:1003E000752E0C94F8370C940000CF93DF93BC016A
:1003F0008230910510F462E070E0A0917E05B0912A
:100400007F05ED01E0E0F0E040E050E021C08881B0
:1004100099818617970769F48A819B81309719F033
:100420009383828304C090937F0580937E05FE01B1
:1004300034C06817790738F44115510519F084174D
:10044000950708F4AC01FE018A819B819C01E901BA
:100450002097E9F641155105A9F1CA01861B970BB2
:10046000049708F4BA01E0E0F0E02AC08D919C9175
:10047000119784179507F9F46417750781F412969C
:100480008D919C911397309719F09383828304C0C8
:1004900090937F0580937E05FD0132964CC0CA0182
:1004A000861B970BFD01E80FF91F6193719302976B
:1004B0008D939C9340C0FD01828193819C01D90161
:1004C0001097A1F680917C0590917D05892B41F4D0
:1004D00080917A0290917B0290937D0580937C05B8
:1004E00040917C0250917D024115510541F44DB778
:1004F0005EB78091780290917902481B590B209148
:100500007C0530917D05CA01821B930B86179707E6
:1005100080F0AB014E5F5F4F8417950750F0420F9C
:10052000531F50937D0540937C05F90161937193AE
:1005300002C0E0E0F0E0CF01DF91CF910895CF93CA
:10054000DF93009709F450C0EC0122971B821A82B6
:10055000A0917E05B0917F05109709F140E050E031
:10056000AC17BD0708F1BB83AA83FE01219131912D
:10057000E20FF31FAE17BF0779F48D919C9111978D
:10058000280F391F2E5F3F4F3983288312968D9194
:100590009C9113979B838A834115510571F4D093E5
:1005A0007F05C0937E0520C012968D919C91139774
:1005B000AD01009711F0DC01D3CFFA01D383C283E0
:1005C00021913191E20FF31FCE17DF0769F4888183
:1005D0009981280F391F2E5F3F4FFA013183208305
:1005E0008A819B8193838283DF91CF910895A0E0DC
:1005F000B0E0EDEFF2E00C94C937EC01A880B980CF
:10060000CA80DB80A114B104C104D10441F484E2A6
:10061000A82E89EDB82E8BE5C82E87E0D82EC6010E
:10062000B5012DE133EF41E050E00E94813727EA28
:1006300031E440E050E00E9421377B018C01C6018B
:10064000B5012DE133EF41E050E00E948137CA014E
:10065000B9012CEE34EF4FEF5FEF0E9421376E0DA2
:100660007F1D801F911F97FF04C061507040804024
:100670009048688379838A839B839B01AC015F7771
:10068000B901CA01CDB7DEB7EAE00C94E5370E94A4
:10069000F70208958EE792E00E94F70208956093B2
:1006A0007E0270937F02809380029093810208956E
:1006B000A0E0B0E0EEE5F3E00C94C3376C010097E6
:1006C00029F4CB010E94F5016C01C1C08EEF882E88
:1006D0008FEF982E8C0C9D1C8601060F171F081596
:1006E000190508F4B2C0F401A081B181A617B707BB
:1006F000B8F0A530B10508F4AAC0CD01049786175B
:10070000970708F4A4C01297A61BB70BF801A19392
:10071000B193D4016D937C93CF010E949F0297C047
:100720007B01EA1AFB0AEEEFFFEFEE0EFF1E360129
:100730006A0E7B1EC0917E05D0917F05442455240E
:10074000AA24BB244AC0C615D705E1F548815981C2
:100750004E155F05B8F1CA0104978E159F05B0F4D8
:100760001296A40FB51FF401B183A0832A813B81A7
:100770004114510431F0D20113963C932E931297F9
:1007800066C030937F0520937E0561C08A819B817E
:10079000F80193838283425050404E195F09518380
:1007A00040834114510431F0D20113961C930E93EF
:1007B000129704C010937F0500937E05F4017183A6
:1007C000608345C088819981A816B90608F45C0148
:1007D0002E018A819B819C01E901209709F0B3CF0A
:1007E00080917C0590917D0586159705E9F4A61604
:1007F000B706D0F420917C0230917D02211531059D
:1008000041F42DB73EB78091780290917902281B70
:10081000390B02171307C8F410937D0500937C056C
:10082000D4016D937C9313C0CB010E94F501EC01C0
:10083000009759F0F40140815181B6010E9476047D
:10084000C6010E949F026E0102C0CC24DD24C601B5
:10085000CDB7DEB7E0E10C94DF37662777270C943D
:10086000E304FC0188279927E89421912032E9F3D9
:10087000293010F02E30C8F32B3241F02D3239F4EC
:10088000689404C00E94DB04820F911D21912053C3
:100890002A30C0F31EF4909581959F4F08951F93C1
:1008A000FC0199278827BC01E89411911032E9F3E3
:1008B000193010F01E30C8F31B3251F01D3249F4CC
:1008C000689406C00E94C604610F711D811D911DB0
:1008D000119110531A30B0F33EF4909580957095B5
:1008E00061957F4F8F4F9F4F1F910895FB01DC0152
:1008F00002C001900D9241505040D8F70895FB017D
:10090000DC018D91019080190110D9F3990B0895A4
:10091000FB01DC0101900D920020E1F70895FB013D
:10092000DC014150504030F08D910190801919F454
:100930000020B9F7881B990B0895FB01DC01415099
:10094000504048F001900D920020C9F701C01D925F
:1009500041505040E0F70895FB0151915523A9F013
:10096000BF01DC014D9145174111E1F759F4CD016B
:100970000190002049F04D9140154111C9F3FB0150
:100980004111EFCF81E090E001970895592F482F52
:10099000372F262F660F771F881F991F660F771F27
:1009A000881F991F620F731F841F951F660F771F83
:1009B000881F991F08957AE0979F902D879F802D1B
:1009C000910D11240895A0E0B0E0E9EEF4E00C945C
:1009D000C737EC015B016115710519F0FB019183CB
:1009E0008083F9908F2D90E00E94B637892BC9F74C
:1009F000FDE2FF1621F4F990EE24E39405C02BE20A
:100A0000F21609F4F990EE248E0101501040C8014D
:100A100062E573E043E050E00E944306892B01F554
:100A20008E010E5F1F4FC80165E573E045E050E0A1
:100A30000E944306892B19F48E01095F1F4FA114F0
:100A4000B10419F0F50111830083E0FC04C070E0EB
:100A500090E080E814C070E090E080E86FEF08C19B
:100A6000C8016AE573E043E050E00E944306892B29
:100A700069F4A114B10429F470E090E080EC6FE710
:100A8000F7C02296F501D183C083F6CF882499243C
:100A900040E050E060E070E0EF2DE053EA30A0F578
:100AA000F2E0EF2A8E2D90E09C0128703070E2FE7B
:100AB00006C0232B79F50894811C911C2BC0232B95
:100AC00019F0089481089108DB01CA0112E0880F2F
:100AD000991FAA1FBB1F1A95D1F7480F591F6A1FEC
:100AE0007B1F440F551F661F771F4E0F511D611D41
:100AF000711D483929E9520729E9620729E172077E
:100B000048F084E0E82A06C0EE3F31F4E3FC39C047
:100B100098E0E92AF990C0CFE53311F0E53189F585
:100B200029912D3219F4E0E1EE2A05C02B3219F09B
:100B300081E090E003C0299182E090E0E22FE05351
:100B4000EA3018F0C81BD90B1CC020E030E0FCE0F4
:100B500020383F075CF4C901880F991F880F991F3F
:100B6000280F391F220F331F2E0F311DE991E0533B
:100B7000EA3068F3E4FE03C0309521953F4F820EC2
:100B8000931ECE2CDD24E1FE07C0A114B10421F098
:100B90002197F501D183C083CB01BA010E94A3350F
:100BA0007B018C01F3E0CF22DD2423E0C216D104C7
:100BB00021F417FB109517F9109557016801C8012A
:100BC000B70120E030E040E050E00E940635882385
:100BD00009F44AC097FE0DC021E7E22E23E0F22E71
:100BE0009094819491089394C0E2D0E000E010E0EA
:100BF00012C099E8E92E93E0F92EF6CFF70125917E
:100C0000359145915491C601B5010E9459365B0159
:100C10006C018C1A9D0A8C169D0684F7D595C79594
:100C20000F5F1F4F0630110529F08CEF9FEFE80E84
:100C3000F91EF1CFC501D6017C018D018C2D880FE5
:100C40008D2D881F8F3F51F0C601B50120E030E0A7
:100C500040E050E00E940635882331F482E290E0C3
:100C600090938105809380057E2D9F2D802F612F8D
:100C7000272F392F482F562FB901CA01CDB7DEB71C
:100C8000ECE00C94E337FB01DC014150504088F06C
:100C90008D9181341CF08B350CF4805E659161344C
:100CA0001CF06B350CF4605E861B611171F3990BBF
:100CB0000895881BFCCFAF92BF92CF92DF92EF9244
:100CC000FF920F931F936E157F058007910734F4F1
:100CD0002E153F054007510764F42CC0E616F706B1
:100CE0000807190794F4A216B306C406D5063CF407
:100CF00023C0A216B306C406D506BCF41FC02A152D
:100D00003B054C055D05C4F41BC06E157F058007CF
:100D1000910791F42A153B054C055D058CF0A21650
:100D2000B306C406D50644F409C02A153B054C0594
:100D30005D0511F484E005C082E003C083E001C0DA
:100D400081E01F910F91FF90EF90DF90CF90BF90C7
:100D5000AF900895EF92FF920F931F937B018C0148
:100D6000662757FD6095762FCB01BA010E94A53505
:100D70002091EF023091F0024091F1025091F20285
:100D80000E945936A80197010E940A357B018C0107
:100D900020E030E040E050E40E94553687FF03C079
:100DA00061E070E004C0C801B7010E947235CB0158
:100DB0001F910F91FF90EF9008956F927F928F9205
:100DC0009F92AF92BF92CF92DF92EF92FF920F93DA
:100DD0001F93CF93DF937C015B01662757FD6095DE
:100DE000762FCB01BA010E94A5353B014C010027AB
:100DF000F7FC0095102FC801B7010E94A5357B01B3
:100E00008C01CC24B7FCC094DC2CC601B5010E9437
:100E1000A5359B01AC01C801B7010E940A35A401A8
:100E200093010E9459369B01AC01C401B3010E9499
:100E3000A1347B018C010E947235EB01BE01882731
:100E400077FD8095982F0E94A5359B01AC01C801C4
:100E5000B7010E94A13420E030E040E05FE30E944F
:100E6000553618160CF42196CE01DF91CF911F91C3
:100E70000F91FF90EF90DF90CF90BF90AF909F9039
:100E80008F907F906F900895EF92FF920F931F9332
:100E90008C017B01FC01608171818281938120E062
:100EA00030E040E050E00E94A234F801608371839A
:100EB00082839383F701608171818281938120E035
:100EC00030E040E050E00E94A234F701608371837B
:100ED000828393831F910F91FF90EF9008952F923B
:100EE0003F924F925F926F927F928F929F92AF92BA
:100EF000BF92CF92DF92EF92FF920F931F931B014D
:100F00002C0139014A01E090F702F090F8020091BB
:100F1000F9021091FA02C801B701A80197010E94D5
:100F200021370E94A5355B016C01C401B301A40106
:100F300093010E9459369B01AC01C601B5010E9484
:100F4000A1345B016C01C201B101A20191010E94B7
:100F500059369B01AC01C601B5010E94A2345B0168
:100F60006C01EE0CFF1C001F111FC801B7010E948D
:100F7000A5359B01AC01C601B5010E940A351F9140
:100F80000F91FF90EF90DF90CF90BF90AF909F9028
:100F90008F907F906F905F904F903F902F9008952B
:100FA0000F931F93CF93DF93242F2627A22FB0E018
:100FB000AF70B070AA0FBB1FAA0FBB1FC8E6D0E06E
:100FC000AC0FBD1FFD010591159125913491E4E011
:100FD0009695879577956795EA95D1F70627172710
:100FE0002827392742954F70402750E04F705070A6
:100FF000440F551F440F551F4C0F5D1FFA0185917B
:101000009591A591B49144E036952795179507954C
:101010004A95D1F7082719272A273B27B801C90184
:10102000DF91CF911F910F910895EF92FF920F934F
:101030001F938130910509F097C16F5F7F4F09F0D1
:1010400042C28AE893E060E071E00E94E23385EEFC
:1010500092E00E94B02688EE92E064E071E00E9487
:10106000E23381E993E065E071E00E94E233209190
:10107000830230918402442737FD4095542F6091BC
:10108000890270918A02882777FD8095982F0E94A7
:1010900021370E94A5357B018C01609185027091FA
:1010A00086028091870290918802A80197010E9490
:1010B0000A356093EF027093F0028093F1029093EF
:1010C000F202C801B7012091850230918602409159
:1010D0008702509188020E940A357B018C0160933F
:1010E000F3027093F4028093F5029093F6026091FC
:1010F000990270919A02882777FD8095982F0E9417
:10110000A535A80197010E9459360E947235609357
:10111000F7027093F8028093F9029093FA026091BB
:101120009B0270919C02882777FD8095982F0E94E2
:10113000A535A80197010E9459360E947235609327
:10114000FB027093FC028093FD029093FE0288E9FB
:1011500093E06EE071E00E94E2338FE993E060E19A
:1011600071E00E94E23386EA93E064E171E00E945C
:10117000E2338DEA93E06CE171E00E94E23384EBAC
:1011800093E06FE471E00E94E2338BEB93E06FE455
:1011900071E00E94E23382EC93E06FE471E00E9420
:1011A000E23389EC93E06FE471E00E94E23380ED7A
:1011B00093E06EE571E00E94E23387ED93E064E630
:1011C00071E00E94E2338EED93E06BE671E00E94E5
:1011D000E23385EE93E063E771E00E94E2338CEE48
:1011E00093E06EE771E00E94E23383EF93E060EDFD
:1011F00073E00E947F3480E193E064E071E00E943C
:10120000E2338AEF93E064E871E00E94E23381E028
:1012100094E066E871E00E94E23388E094E06BE8D5
:1012200071E00E94E2338FE094E06FE871E00E9489
:10123000E23386E194E063E971E00E94E2338DE1FC
:1012400094E067E971E00E94E23384E294E06BE9A4
:1012500071E00E94E2338BE294E06FE971E00E945A
:10126000E23382E394E063EA71E00E94E23389E3CF
:1012700094E067EA71E00E94E23380E494E06BEA74
:1012800071E00E94E23387E494E06FEA71E00E942B
:10129000E2338EE494E063EB71E00E94E23385E593
:1012A00094E067EB71E00E94E2338CE594E06BEB35
:1012B00071E00E94E23383E694E06FEB71E00E94FC
:1012C000E2338AE694E063EC71E00E94E23381E766
:1012D00094E067EC71E00E94E23388E794E06BEC05
:1012E00071E00E94E2338FE794E06FEC71E00E94BE
:1012F000E23386E894E063ED71E00E94E2338DE82A
:1013000094E067ED71E00E94E23384E994E06BEDD4
:1013100071E00E94E2338BE994E06FED71E00E948E
:10132000E233609183027091840288E193E041E0AE
:101330000E945C2A609183027091840284E293E0AF
:1013400042E00E945C2A80E393E069EE75E142EEA0
:1013500055E10E9479228DE593E06BED75E144ED56
:1013600055E10E947922AFC0892B09F0ACC06F5FB4
:101370007F4F09F0A8C08BE994E00E94953484E97E
:1013800094E00E9495348DE894E00E94953486E8BC
:1013900094E00E9495348FE794E00E94953488E7AA
:1013A00094E00E94953481E794E00E9495348AE6A7
:1013B00094E00E94953483E694E00E9495348CE595
:1013C00094E00E94953485E594E00E9495348EE483
:1013D00094E00E94953487E494E00E94953480E480
:1013E00094E00E94953489E394E00E94953482E36E
:1013F00094E00E9495348BE294E00E94953484E25C
:1014000094E00E9495348DE194E00E94953486E149
:1014100094E00E9495348FE094E00E94953488E037
:1014200094E00E94953481E094E00E9495348AEF24
:1014300093E00E94953480E193E00E94953483EF1D
:1014400093E00E9495348CEE93E00E94953485EEF3
:1014500093E00E9495348EED93E00E94953487EDE1
:1014600093E00E94953480ED93E00E94953489ECDE
:1014700093E00E94953482EC93E00E9495348BEBCC
:1014800093E00E94953484EB93E00E9495348DEABA
:1014900093E00E94953486EA93E00E9495348FE9A8
:1014A00093E00E94953488E993E00E94953481E9A5
:1014B00093E00E94953488EE92E00E9495348AE889
:1014C00093E00E9495341F910F91FF90EF90089543
:1014D00080E090E06FEF7FEF0E941508089581E0B3
:1014E00090E06FEF7FEF0E9415080895CF92DF9292
:1014F000EF92FF920F931F93CF93DF936C01C0E0A5
:10150000D0E0EE24EA94FE2C87010CC0C601BE0197
:101510000E94C731482FC801B7010E94D0077B0144
:101520008C012196F60184819581C817D90770F343
:10153000A80197012095309540955095B901CA01B1
:10154000DF91CF911F910F91FF90EF90DF90CF909F
:1015500008950F931F9384E090E00E94F5018C01A1
:101560000E949F022DB73EB7201B310BC9011F916E
:101570000F9108950E94A90A9C0180910303909104
:10158000040328173907D1F0309304032093030391
:101590008CE595E066EA73E00E94F7306091030302
:1015A000709104038CE595E04AE050E00E94FE2F24
:1015B0008CE595E061E074E00E942A3108958CE5A5
:1015C00095E067ED73E00E942A3108958CE595E07F
:1015D00060ED73E00E942A310895AF92BF92CF92DE
:1015E000DF92EF92FF920F931F937B018C01CA0150
:1015F000B9010E9459365B016C01C801B701A8010D
:1016000097010E9459369B01AC01C601B5010E94A9
:10161000A1340E94C0361F910F91FF90EF90DF9090
:10162000CF90BF90AF900895AF92BF92CF92DF92CC
:10163000EF92FF920F931F937B018C0159016A0176
:101640006091F7027091F8028091F9029091FA028C
:101650000E94A535A80197010E94A1349B01AC010D
:101660000E9459367B018C01C601B501A601950186
:101670000E9459369B01AC01C801B7010E94A234F7
:101680000E94C0361F910F91FF90EF90DF90CF9096
:10169000BF90AF900895AF92BF92CF92DF92EF923A
:1016A000FF920F931F937B018C0159016A01A801DE
:1016B00097010E9459367B018C01C601B501A60134
:1016C00095010E9459369B01AC01C801B7010E94E7
:1016D000A2340E94C0361F910F91FF90EF90DF90CF
:1016E000CF90BF90AF90089580919602882309F41F
:1016F00040C08CE595E06CEE73E00E94F73080E32B
:1017000093E00E9473222091890230918A0244273B
:1017100037FD4095542F0E9481378CE595E0BA0142
:10172000A9012AE030E00E94AA2F8CE595E06AEF3B
:1017300073E00E94F7308DE593E00E9473222091C0
:10174000890230918A02442737FD4095542F0E9428
:1017500081378CE595E0BA01A9012AE030E00E94CA
:10176000AA2F8CE595E061E074E00E942A310E9486
:10177000BA0A0895AC01662757FD6095762F8DE56E
:1017800093E00E94592308C080910503882321F02B
:101790008DE593E00E9477268DE593E00E94632219
:1017A000611571058105910579F70E94122B6093EF
:1017B00008037093090380930A0390930B03089521
:1017C000AC01662757FD6095762F80E393E00E9479
:1017D000592308C080910503882321F080E393E01A
:1017E0000E94772680E393E00E94632261157105D1
:1017F0008105910579F70E94122B6093080370937D
:10180000090380930A0390930B030895CF93DF930A
:10181000FC01EB0121153105A9F48091A302882375
:1018200039F0CF0162E070E00E944C37CB012CC050
:10183000CF0162E070E00E944C37CB01909581951A
:101840009F4F22C08091A30224173507A9F4882353
:1018500039F0CF0162E070E00E944C37CB0109C043
:10186000CF0162E070E00E944C37CB0190958195EA
:101870009F4F0E94E00B17C0882311F0CF0104C0D6
:10188000882799278E1B9F0B0E94E00BCE010E9498
:10189000BA0B8091A302882319F01092A30203C00F
:1018A00081E08093A302DF91CF910895EF92FF92A0
:1018B0000F931F938091FF0290910003A091010369
:1018C000B09102030097A105B10509F040C06091F5
:1018D000F7027091F8028091F9029091FA020E9449
:1018E000A5357B018C016091FB027091FC02809117
:1018F000FD029091FE020E94A5359B01AC01C8013A
:10190000B7010E944B0B20E030E040E05FE30E9413
:10191000A2340E9472356093FF027093000380939B
:101920000103909302038CE595E063EE71E00E9461
:1019300030304091FF02509100036091010370919B
:1019400002038CE595E02AE030E00E94EA2F6091E6
:10195000FF027091000380910103909102031F9197
:101960000F91FF90EF900895DF93CF93CDB7DEB73F
:1019700028970FB6F894DEBF0FBECDBF69837A8378
:101980008B839C832D833E834F8358870E94122B29
:10199000609308037093090380930A0390930B03E9
:1019A000CE010196BE016B5F7F4F0E9444076981A3
:1019B0007A818B819C810E947235AB01BC0180E3EE
:1019C00093E00E9451236D817E818F8198850E94D2
:1019D0007235AB01BC018DE593E00E94512315C027
:1019E00080919302882349F080E393E00E94772658
:1019F0008DE593E00E94772608C080E393E00E9483
:101A00003E268DE593E00E943E2680E393E00E940F
:101A10006322611571058105910549F48DE593E017
:101A20000E946322611571058105910529F080915D
:101A30000503882351F3D4CF0E94740B28960FB668
:101A4000F894DEBF0FBECDBFCF91DF910895AF9266
:101A5000BF92CF92DF92EF92FF920F931F93790183
:101A60008A010E94A5355B016C01C801B7010E9483
:101A7000A5359B01AC01C601B5010E94B40C1F91B4
:101A80000F91FF90EF90DF90CF90BF90AF900895AF
:101A90000F931F93CF93DF93EC018B012115310539
:101AA000D9F48CE595E06AEF71E00E94E430809112
:101AB000A302882339F0CE0162E070E00E944C3727
:101AC000CB012CC0CE0162E070E00E944C37CB010C
:101AD000909581959F4F22C08091A30224173507CE
:101AE000A9F4882339F0CE0162E070E00E944C37FF
:101AF000CB0109C0CE0162E070E00E944C37CB01FF
:101B0000909581959F4F0E94BA0B17C0882311F0C2
:101B1000CE0104C0882799278C1B9D0B0E94BA0B0D
:101B2000C8010E94E00B8091A302882319F0109253
:101B3000A30203C081E08093A302DF91CF911F91A4
:101B40000F9108953F924F925F926F927F928F9282
:101B50009F92AF92BF92CF92DF92EF92FF920F933C
:101B60001F93DF93CF9300D000D0CDB7DEB7FC0139
:101B70004B016A01322E141615060CF081C0BA0111
:101B80000E944C375B01CF01B6010E944C37AA2757
:101B900097FDA095BA2FBC01CD010E94A5357B0110
:101BA0008C01B601882777FD8095982F0E94A53576
:101BB0009B01AC01C801B7010E940A352B013C0111
:101BC0000F2EF0E0EF2EF0E0FF2EF0E00F2FF0E010
:101BD0001F2FF02D1C821B82C50101969A838983D9
:101BE000C801B701A30192010E94A2347B018C01BC
:101BF00020E030E040E85FE30E94553687FF02C0F6
:101C000095010CC0C801B70120E030E040E85FE377
:101C10000E94A1347B018C0129813A8192E039161E
:101C200019F4C401B9010EC0E3E03E1619F4C40171
:101C3000B90116C0F4E03F1659F466277727621BF6
:101C4000730BC401A6012B813C810E94480D0DC07D
:101C500081E0381651F466277727621B730BC401A5
:101C6000A6012B813C810E94060C0E94740BEB8123
:101C7000FC813196FC83EB83CE16DF060CF0B0CFEF
:101C80000F900F900F900F90CF91DF911F910F91B8
:101C9000FF90EF90DF90CF90BF90AF909F908F908C
:101CA0007F906F905F904F903F9008952F923F925A
:101CB0004F925F926F927F928F929F92AF92BF925C
:101CC000CF92DF92EF92FF920F931F93DF93CF9308
:101CD00000D000D0CDB7DEB73B014C0159016A01FD
:101CE000FA82E982C80162E070E00E944C378827DE
:101CF00077FD8095982F661A770A880A990AA61A9E
:101D0000B70AC80AD90A1C821B821801442437FC6E
:101D10004094542C2EC060E070E080E090E0A2017E
:101D200091010E94A9317B018C0160E070E080E0AC
:101D300090E0A20191010E94A9319B01AC01002712
:101D4000F7FC0095102FE60CF71C081D191D442701
:101D500037FD4095542F2A0D3B1D4C1D5D1DC801BC
:101D6000B7010E94270D2B813C812F5F3F4F3C83A1
:101D70002B838B819C81E981FA81E817F9075CF656
:101D80000F900F900F900F90CF91DF911F910F91B7
:101D9000FF90EF90DF90CF90BF90AF909F908F908B
:101DA0007F906F905F904F903F902F9008958AE8BA
:101DB00092E09093A7028093A6029093A902809349
:101DC000A8028FE590E09093AB028093AA0280E98D
:101DD00091E09093AD028093AC0281E090E090930B
:101DE000AF028093AE0281E08093050364EF71E05F
:101DF00080E090E00E94462B0895CF93DF9385EE1C
:101E000092E06AE070E00E941D28C4EBD0E085EE0D
:101E100092E0BE010E94362765E070E080E090E02D
:101E20000E94462B2197CA35D10589F785EE92E0AD
:101E30000E94CA2610928202DF91CF91089580916C
:101E40008202813011F40E94FD0E0895CF93DF933A
:101E500085EE92E06AE070E00E941D28CAE5D0E0BD
:101E600085EE92E0BE010E9436276AE070E080E0D5
:101E700090E00E94462B2196C43BD10589F785EE60
:101E800092E00E94CA2681E080938202DF91CF9186
:101E9000089580918202882311F40E94260F0895EC
:101EA000EF92FF920F931F93B0E3EB2EB3E0FB2E64
:101EB000C7010E947322AB01BC014C5F5F4F6F4FA3
:101EC0007F4FC7010E94A0260DE513E0C8010E94C4
:101ED0007322AB01BC014C5F5F4F6F4F7F4FC80156
:101EE0000E94A026C7010E947322AB01BC0144508E
:101EF000504060407040C7010E94A026C8010E9467
:101F00007322AB01BC014450504060407040C80196
:101F10000E94A0261F910F91FF90EF9008952F929D
:101F20003F924F925F926F927F928F929F92AF9269
:101F3000BF92CF92DF92EF92FF920F931F93DF93A6
:101F4000CF93CDB7DEB7E0970FB6F894DEBF0FBEE4
:101F5000CDBF2B013C01E98EFA8E0B8F1C8FAD8E0D
:101F6000BE8ECF8ED8A21401109296020E946F07E7
:101F70006D8B7E8B8F8B988FA30192010E94ED0A4F
:101F8000698B7A8B8B8B9C8B698D7A8D8B8D9C8DDD
:101F90002D8D3E8D4F8D58A10E946F077B018C01C6
:101FA000298D3A8D4B8D5C8D0E94ED0A5B016C0191
:101FB000C801B70120E030E040EA51E40E94553604
:101FC00018160CF0E4C16091F7027091F80280914C
:101FD000F9029091FA0264517040804090400E9452
:101FE000A5359B01AC01C801B7010E9406358823C5
:101FF0000CF0CDC1C601B50120E030E040EA51E46B
:102000000E94553618160CF0C2C16091FB02709107
:10201000FC028091FD029091FE026451704080406C
:1020200090400E94A5359B01AC01C601B5010E94FC
:10203000063588230CF0ABC1C801B7012D893E8954
:102040004F89588D0E94A1343B014C01C601B50156
:1020500029893A894B895C890E94A1345B016C0112
:10206000C401B30120E030E040E050E00E9455366A
:1020700018161CF48401730106C08401730117FB58
:10208000109517F91095C601B50120E030E040E049
:1020900050E00E94553618161CF4A601950103C0A5
:1020A000A60195015058C801B7010E94553618166F
:1020B000A4F001E0402E512CD601C501B05889A7EB
:1020C0009AA7ABA7BCA7C101AA2797FDA095BA2FD5
:1020D0008DA79EA7AFA7B8AB49C011E0412E512CE8
:1020E000D401C301B05889A39AA3ABA3BCA3C10177
:1020F000AA2797FDA095BA2F8DA39EA3AFA3B8A73B
:1021000003C00894411C511CC401B30120E030E01D
:1021100040E050E00E94553618161CF4840173010B
:1021200004C0E9A0FAA00BA11CA1B201882777FD89
:102130008095982F0E94A5359B01AC01C801B7017D
:102140000E940A357B018C016DA17EA18FA198A50B
:102150000E94A5359B01AC01C801B7010E9455360C
:1021600018167CF231C00894411C511CC601B501FF
:1021700020E030E040E050E00E94553618161CF494
:102180008601750104C0E9A4FAA40BA51CA5B2013F
:10219000882777FD8095982F0E94A5359B01AC017B
:1021A000C801B7010E940A357B018C016DA57EA58F
:1021B0008FA598A90E94A5359B01AC01C801B70164
:1021C0000E94553618167CF2B201882777FD80955B
:1021D000982F0E94A5357B018C01C401B301A80191
:1021E00097010E940A356D837E838F839887C6018D
:1021F000B501A80197010E940A3569837A838B8310
:102200009C838091830290918402B1010E944C379B
:102210003B01B301882777FD8095982F0E94A53553
:102220009B01AC0160918B0270918C0280918D02B8
:1022300090918E020E940A350E9472355B01222421
:102240003324261A370A469E6001479ED00C569EBC
:10225000D00C11244B016D897E898F89988D2D8139
:102260003E814F8158850E94A2346D8B7E8B8F8B6F
:10227000988F69897A898B899C8929813A814B81D8
:102280005C810E94A234698B7A8B8B8B9C8B6D89CD
:102290007E898F89988D29893A894B895C890E942A
:1022A0004B0B6D877E878F87988B6D897E898F8991
:1022B000988D29893A894B895C890E94140B69871A
:1022C0007A878B879C87109293024614570414F4E4
:1022D000460115C0B401882777FD8095982F0E948C
:1022E000A53520918B0230918C0240918D02509146
:1022F0008E020E940635882314F48A0C9B1CB401BC
:10230000882777FD8095982F0E94A5357B018C0149
:1023100080E393E0B801A7010E94B4228DE593E029
:10232000B801A7010E94B4226D857E858F859889AA
:1023300029853A854B855C850E94B40C0894410838
:102340005108C20CD31C4114510409F084CF80E31E
:1023500093E040E050E060E070E00E94B4228DE540
:1023600093E040E050E060E070E00E94B42211E0B1
:1023700010939602698D7A8D8B8D9C8D2D8D3E8D5F
:102380004F8D58A10E94B40C1093930206C08CE5A7
:1023900095E06AE072E00E94E4300E94BA0AE0969A
:1023A0000FB6F894DEBF0FBECDBFCF91DF911F9166
:1023B0000F91FF90EF90DF90CF90BF90AF909F90E4
:1023C0008F907F906F905F904F903F902F900895E7
:1023D0000F931F93AB01BC0140938F025093900267
:1023E000609391027093920280E393E00E94352300
:1023F00040918F02509190026091910270919202EF
:102400008DE593E00E9435230CE515E0C80161ECF1
:1024100070E00E94AE2E40918F0250919002609128
:10242000910270919202C80122E030E00E94D13006
:102430001F910F9108950F931F93AB01BC0140931F
:102440008B0250938C0260938D0270938E0280E316
:1024500093E00E943D2340918B0250918C02609149
:102460008D0270918E028DE593E00E943D230CE574
:1024700015E0C80164ED70E00E94AE2E40918B0221
:1024800050918C0260918D0270918E02C80122E001
:1024900030E00E94D1301F910F910895CF92DF92CA
:1024A000EF92FF920F931F937C01D62EC72E0CE55F
:1024B00015E0C80164E671E00E94AE2EC8016D2DE2
:1024C0007C2D4AE050E00E94FE2FC80167E571E0D4
:1024D0000E94AE2EC801B7014AE050E00E941130C0
:1024E00008EC14E0C801B7014D2D0E94E9280894BA
:1024F000E11CF11CC801B7014C2D0E94E9281F9175
:102500000F91FF90EF90DF90CF900895DF92EF92C0
:10251000FF920F931F938C0188ECE82E84E0F82E35
:10252000C701B8010E94E228D82E0F5F1F4FC701D4
:10253000B8010E94E228382F20E02D0D311DC9017D
:102540001F910F91FF90EF90DF900895AF92BF928F
:10255000CF92DF92EF92FF920F931F93DF93CF936F
:10256000CDB7DEB72E970FB6F894DEBF0FBECDBF46
:1025700080E090E00E94861290939A0280939902E4
:102580001816190644F08091A6029091A702909324
:102590009A02809399028CE595E061E672E00E94D0
:1025A000AE2E6091990270919A028CE595E04AE016
:1025B00050E00E94113082E090E00E9486129093D9
:1025C0009C0280939B021816190644F08091A80281
:1025D0009091A90290939C0280939B028CE595E0D8
:1025E0006AE472E00E94AE2E60919B0270919C02A0
:1025F0008CE595E04AE050E00E9411308EE090E0DA
:102600000E948612A0E0B0E0BC01CD010E94A3357B
:10261000609385027093860280938702909388026C
:1026200020E030E040E85FE30E940635882394F420
:102630006091AA027091AB02882777FD8095982F50
:102640000E94A5356093850270938602809387026D
:10265000909388028CE595E067E372E00E94AE2ECD
:1026600040918502509186026091870270918802A4
:102670008CE595E022E030E00E94D13080E190E0EE
:102680000E94861290938402809383021816190682
:1026900044F08091AC029091AD02909384028093BB
:1026A00083028CE595E06BE172E00E94AE2E6091B2
:1026B0008302709184028CE595E04AE050E00E942C
:1026C00011308E010F5F1F4FC80164E071E00E945E
:1026D000E23324E0E22EF12C98E0C92ED12CCC0E6E
:1026E000DD1EA12E88EC94E0B7010E94E228182F8D
:1026F000C601602F7A2D0E948A34C601612F0E9484
:10270000B033BC01802F9A2D0E946834C6010E940C
:102710009B340894E11CF11C8CE0E816F10411F7DD
:10272000802F9A2D60E070E00E94D831FC018081FA
:10273000882331F4802F9A2D61E973E00E94683478
:102740001092FF02109200031092010310920203F4
:1027500088EE92E0BE016F5F7F4F0E9468348CE587
:1027600095E066E072E00E94AE2E8CE595E068EEA2
:1027700072E00E942A3182E190E00E9486129093DA
:102780008A02809389021816190644F08091AE02DD
:102790009091AF0290938A02809389028CE595E034
:1027A00068EE71E00E94AE2E6091890270918A02FB
:1027B0008CE595E04AE050E00E941130A09085023F
:1027C000B0908602C0908702D09088026091890202
:1027D00070918A02882777FD8095982F2091830237
:1027E00030918402442737FD4095542F0E942137B1
:1027F0000E94A5357B018C01C601B501A801970196
:102800000E940A356093EF027093F0028093F10208
:102810009093F202C801B701A60195010E940A3502
:102820006093F3027093F4028093F5029093F602A2
:102830008CE595E06FEC71E00E94AE2E4091EF02C6
:102840005091F0026091F1027091F2028CE595E0F6
:1028500022E030E00E94CE308CE595E06CEB71E038
:102860000E94AE2E4091F3025091F4026091F50265
:102870007091F6028CE595E022E030E00E94CE30C7
:102880008CE595E06AEB71E00E94AE2E8CE595E058
:102890000E94D12E6091990270919A02882777FD4B
:1028A0008095982F0E94A5352091F3023091F40273
:1028B0004091F5025091F6020E9459360E947235FD
:1028C0006093F7027093F8028093F9029093FA02F2
:1028D0008CE595E068E971E00E94AE2E4091F70228
:1028E0005091F8026091F9027091FA028CE595E03E
:1028F0002AE030E00E94AA2F8CE595E066E971E0BD
:102900000E94AE2E8CE595E00E94D12E60919B0234
:1029100070919C02882777FD8095982F0E94A5359D
:102920002091F3023091F4024091F5025091F602A9
:102930000E9459360E9472356093FB027093FC022C
:102940008093FD029093FE028CE595E063E771E0D1
:102950000E94AE2E4091FB025091FC026091FD025C
:102960007091FE028CE595E02AE030E00E94AA2FEB
:102970008CE595E061E771E00E94AE2E8CE595E074
:102980000E94D12E1092FF021092000310920103B8
:1029900010920203CE0101960E9495342E960FB636
:1029A000F894DEBF0FBECDBFCF91DF911F910F9185
:1029B000FF90EF90DF90CF90BF90AF900895EF928F
:1029C000FF920F931F93DF93CF93CDB7DEB7279777
:1029D0000FB6F894DEBF0FBECDBF7E010894E11C98
:1029E000F11CC70164EB73E00E947F34C70161E909
:1029F00073E00E94DC328823A1F400E010E0C701FC
:102A0000B8010E94D831FC010C5F1F4F88EC94E0A4
:102A1000B80140810E94E928035010400830110598
:102A200071F70E94A612CE0101960E949534279656
:102A30000FB6F894DEBF0FBECDBFCF91DF911F91CF
:102A40000F91FF90EF900895CF93DF93C0E0D0E017
:102A500088EC94E0BE0140E00E94E9282196C43150
:102A6000D105B1F70E94A612DF91CF910895CF93BF
:102A7000DF93C0E0D0E08CE595E0BE014AE050E095
:102A80000E94FE2F8CE595E060E372E00E943030FA
:102A900088EC94E0BE010E94E228682F8CE595E066
:102AA0004AE050E00E948C2F2196C431D10519F7DD
:102AB000DF91CF910895EF92FF920F931F930E94A1
:102AC00037150CE515E0C80169E171E00E94AE2EF2
:102AD000C80168EE72E00E94F73031E0E32E34E086
:102AE000F32EC801B7010E942A31C80161E171E0EB
:102AF0000E94AE2E6091990270919A02C8014AE03C
:102B000050E00E94FE2FC8016AEF73E00E94F73088
:102B100060919B0270919C02C8014AE050E00E94C3
:102B2000FE2FC801B7010E942A31C80165E071E09B
:102B30000E94AE2E409185025091860260918702DC
:102B400070918802C80122E030E00E94CE30C801B6
:102B5000B7010E942A31C80166EF70E00E94AE2ED4
:102B60006091830270918402C8014AE050E00E94A3
:102B7000FE2FC801B7010E942A31C80164EE70E03F
:102B80000E94AE2E6091830270918402C8014AE0D7
:102B900050E00E94FE2FC801B7010E942A311F9108
:102BA0000F91FF90EF90089584E293E062E043E09C
:102BB0000E944629089584E293E061E043E00E9488
:102BC0004629089588E193E062E043E00E944629A7
:102BD000089588E193E061E043E00E94462908956A
:102BE000EF92FF920F931F937C010CE515E0C80153
:102BF00065E972E00E94AE2EC801B7010E94F7306D
:102C0000C80167E772E00E94F12E1F910F91FF90BB
:102C1000EF900895EF92FF920F931F93DF93CF935E
:102C2000CDB7DEB7FC01EDB6FEB6448155814F5FEE
:102C30005F4F8DB79EB7841B950B0FB6F8949EBF60
:102C40000FBE8DBF0DB71EB70F5F1F4FCF01B8016D
:102C500020E030E00E945A32C8010E942D040FB6D5
:102C6000F894FEBE0FBEEDBECF91DF911F910F9184
:102C7000FF90EF9008958F929F92AF92BF92CF9264
:102C8000DF92EF92FF920F931F93DF93CF93CDB715
:102C9000DEB72E970FB6F894DEBF0FBECDBF4E0144
:102CA0000894811C911CC40164EB73E00E947F3482
:102CB000C4010E940A167B018C0160918902709107
:102CC0008A02882777FD8095982F0E94A5359B0161
:102CD000AC01C801B7010E9459365B016C01C40107
:102CE0000E94953448E0842E912C8C0E9D1EC401C8
:102CF0006BEB73E00E947F34C4010E940A167B01D3
:102D00008C016091890270918A02882777FD8095F5
:102D1000982F0E94A5359B01AC01C801B7010E9404
:102D200059367B018C01C4010E949534B501C6015E
:102D30009701A8010E94B40C2E960FB6F894DEBF3E
:102D40000FBECDBFCF91DF911F910F91FF90EF90FC
:102D5000DF90CF90BF90AF909F908F9008950F938A
:102D60001F93DF93CF93CDB7DEB727970FB6F894B5
:102D7000DEBF0FBECDBF8E010F5F1F4FC80164EBDA
:102D800073E00E947F34C8010E940A1660939F027C
:102D90007093A0028093A1029093A202C8010E94A6
:102DA00095340CE515E0C8016BEA70E00E94AE2E88
:102DB00040919F025091A0026091A1027091A202E5
:102DC000C80122E030E00E94CE30C80168EA70E01D
:102DD0000E94AE2EC8010E94D12E27960FB6F894FD
:102DE000DEBF0FBECDBFCF91DF911F910F91089530
:102DF000CF92DF92EF92FF920F931F93DF93CF93C7
:102E0000CDB7DEB727970FB6F894DEBF0FBECDBFA4
:102E10006E010894C11CD11CC60164EB73E00E94D2
:102E20007F34C6010E940A167B018C01C6010E94F4
:102E30009534C801B70120918F02309190024091E2
:102E40009102509192020E94A2340E94E8112796AA
:102E50000FB6F894DEBF0FBECDBFCF91DF911F91AB
:102E60000F91FF90EF90DF90CF9008950F931F93F5
:102E7000DF93CF93CDB7DEB727970FB6F894DEBFB9
:102E80000FBECDBF8E010F5F1F4FC80164EB73E013
:102E90000E947F34C8010E940A160E94E811C801EE
:102EA0000E94953427960FB6F894DEBF0FBECDBFB3
:102EB000CF91DF911F910F910895CF92DF92EF9202
:102EC000FF920F931F93DF93CF93CDB7DEB7279772
:102ED0000FB6F894DEBF0FBECDBF6E010894C11CC3
:102EE000D11CC60164EB73E00E947F34C6010E94CE
:102EF0000A167B018C01C6010E949534C801B701F6
:102F000020918B0230918C0240918D0250918E0263
:102F10000E94A2340E941B1227960FB6F894DEBFBF
:102F20000FBECDBFCF91DF911F910F91FF90EF901A
:102F3000DF90CF9008950F931F93DF93CF93CDB77A
:102F4000DEB727970FB6F894DEBF0FBECDBF8E0158
:102F50000F5F1F4FC80164EB73E00E947F34C8010C
:102F60000E940A160E941B12C8010E9495342796DF
:102F70000FB6F894DEBF0FBECDBFCF91DF911F918A
:102F80000F910895CF92DF92EF92FF920F931F93CC
:102F9000DF93CF93CDB7DEB727970FB6F894DEBF98
:102FA0000FBECDBF6E010894C11CD11CC60164EBDD
:102FB00073E00E947F34C6010E940A167B018C01D7
:102FC000C6010E949534C801B7010E9472359B0169
:102FD000AC018EE090E0B9010E944E120E94A61250
:102FE00027960FB6F894DEBF0FBECDBFCF91DF910D
:102FF0001F910F91FF90EF90DF90CF900895EF9287
:10300000FF920F931F93DF93CF93CDB7DEB7FC01F1
:10301000EDB6FEB6448155814F5F5F4F8DB79EB7C9
:10302000841B950B0FB6F8949EBF0FBE8DBF0DB7D6
:103030001EB70F5F1F4FCF01B80120E030E00E94A4
:103040005A32C8010E9431040FB6F894FEBE0FBE7A
:10305000EDBECF91DF911F910F91FF90EF900895FA
:103060002F923F924F925F926F927F928F929F9298
:10307000AF92BF92CF92DF92EF92FF920F931F9386
:10308000DF93CF93CDB7DEB7A4970FB6F894DEBF2A
:103090000FBECDBF8E010F5F1F4FC80164EB73E001
:1030A0000E947F34C8010E94FF17AA2797FDA095B0
:1030B000BA2F2091890230918A02442737FD40952A
:1030C000542FBC01CD010E9421375B01C8010E9431
:1030D00095348E01085F1F4FC8016BEB73E00E94AF
:1030E0007F34C8010E940A16F62EE72ED82EC92E6C
:1030F000C8010E9495348E01015F1F4FC80162EC28
:1031000073E00E947F34C8010E940A1669A37AA363
:103110008BA39CA3C8010E9495348E010A5E1F4FA9
:10312000C80169EC73E00E947F34C8010E940A164E
:103130002B013C01C8010E94953420909D023090E3
:103140009E0282E090E090939E0280939D02809187
:103150009F029091A002A091A102B091A2028D8F36
:103160009E8FAF8FB8A32F2D3E2D4D2D5C2DC90105
:10317000DA016C017D01882499241EC00894811C09
:10318000911CC0929F02D092A002E092A102F09204
:10319000A202C701B601A5010E94AA06AC01C501A1
:1031A000B50122E00E94A20DC701B601A301920160
:1031B0000E94A2346B017C01C701B60129A13AA18A
:1031C0004BA15CA10E9406351816C4F68D8D9E8D0C
:1031D000AF8DB8A180939F029093A002A093A1020B
:1031E000B093A202EE24FF24EA18FB08C7010E9454
:1031F000BA0BC50162E070E00E944C377095619592
:103200007F4F3B01C50162E070E00E944C376B01CB
:1032100001E010E00BC0C3010E94BA0BC7010E947D
:10322000E00BC6010E94BA0B0F5F1F4F801691067C
:1032300094F78D8D9E8DAF8DB8A180939F02909352
:10324000A002A093A102B093A20230929E0220920B
:103250009D02A4960FB6F894DEBF0FBECDBFCF91EE
:10326000DF911F910F91FF90EF90DF90CF90BF9073
:10327000AF909F908F907F906F905F904F903F9016
:103280002F9008952F923F924F925F926F927F926C
:103290008F929F92AF92BF92CF92DF92EF92FF9266
:1032A0000F931F93DF93CF93CDB7DEB76B970FB616
:1032B000F894DEBF0FBECDBF6E010894C11CD11CB7
:1032C000C60164EB73E00E947F34C6010E940A16B7
:1032D0007B018C016091890270918A02882777FDB9
:1032E0008095982F0E94A5359B01AC01C801B701BC
:1032F0000E9459363B014C01C6010E9495348E0153
:10330000085F1F4FC8016BEB73E00E947F34C80158
:103310000E940A166B017C01A0908902B0908A027B
:10332000C8010E9495348E01015F1F4FC80162ECF5
:1033300073E00E947F34C8010E94FF179F8B8E8B21
:10334000C8010E94953480E393E00E947322688F45
:10335000798F8A8F9B8F8DE593E00E9473221B01EA
:103360002C01C401B30120E030E040EA51E40E94A6
:10337000063587FD2FC0B501882777FD8095982FEA
:103380000E94A5359B01AC01C701B6010E945936C8
:103390005B016C0120E030E040EA51E40E94063518
:1033A00087FD18C00E94560C0E94A5359B01AC01F8
:1033B000C401B3010E945536181664F00E94560CE1
:1033C0000E94A5359B01AC01C601B5010E9455368E
:1033D00018163CF48CE595E063E372E00E94E4305B
:1033E00016C0688D798D8A8D9B8D0E94A5357B01D5
:1033F0008C01C201B1010E94A5359B01AC01C8013D
:10340000B701840173018E889F880E948F0F6B968D
:103410000FB6F894DEBF0FBECDBFCF91DF911F91E5
:103420000F91FF90EF90DF90CF90BF90AF909F9063
:103430008F907F906F905F904F903F902F90089566
:103440008F929F92AF92BF92CF92DF92EF92FF92B4
:103450000F931F93DF93CF93CDB7DEB72E970FB6A1
:10346000F894DEBF0FBECDBF8E010F5F1F4FC801A6
:1034700064EB73E00E947F34C8010E94FF17AA2703
:1034800097FDA095BA2F2091890230918A02442796
:1034900037FD4095542FBC01CD010E9421375B01BF
:1034A0006C01C8010E94953458E0852E912C8C0E39
:1034B0009D1EC4016BEB73E00E947F34C4010E9427
:1034C000FF17AA2797FDA095BA2F20918902309166
:1034D0008A02442737FD4095542FBC01CD010E943C
:1034E00021377B018C01C4010E949534A501662718
:1034F00057FD6095762F80E393E00E944523A70156
:10350000662757FD6095762F8DE593E00E94452351
:103510000E94500F0E94740B2E960FB6F894DEBFD7
:103520000FBECDBFCF91DF911F910F91FF90EF9014
:10353000DF90CF90BF90AF909F908F9008950F93A2
:103540001F93DF93CF93CDB7DEB727970FB6F894CD
:10355000DEBF0FBECDBF8E010F5F1F4FC80164EBF2
:1035600073E00E947F34C8010E94FF17BC0182E112
:1035700090E00E944E12C8010E9495340E94A6124B
:1035800027960FB6F894DEBF0FBECDBFCF91DF9167
:103590001F910F910895EF92FF920F931F93DF9366
:1035A000CF93CDB7DEB727970FB6F894DEBF0FBE27
:1035B000CDBF8E010F5F1F4FC80164EB73E00E9407
:1035C0007F34C8010E94FF177C01C8010E94953416
:1035D00080E190E0B7010E944E120E94A612279649
:1035E0000FB6F894DEBF0FBECDBFCF91DF911F9114
:1035F0000F91FF90EF900895CF92DF92EF92FF929C
:103600000F931F93DF93CF93CDB7DEB72E970FB6EF
:10361000F894DEBF0FBECDBF8E010F5F1F4FC801F4
:1036200064EB73E00E947F34C8010E94FF176C01B5
:10363000C8010E9495348E01085F1F4FC8016BEBD3
:1036400073E00E947F34C8010E94FF177C01C8010B
:103650000E9495348BE0C816D1042CF080E090E0F5
:10366000B6010E944E128BE0E816F1042CF082E0C5
:1036700090E0B7010E944E120E94A6122E960FB63D
:10368000F894DEBF0FBECDBFCF91DF911F910F9198
:10369000FF90EF90DF90CF9008950F931F93DF93EB
:1036A000CF93CDB7DEB72E970FB6F894DEBF0FBE1F
:1036B000CDBF8E010F5F1F4FC80164EB73E00E9406
:1036C0007F34C8010E94FF1790939E0280939D0251
:1036D000C8010E9495348E01085F1F4FC8016BEB33
:1036E00073E00E947F34C8010E94FF179093A502E7
:1036F0008093A402C8010E9495340CE515E0C8012E
:1037000064E371E00E94AE2E60919D0270919E0272
:10371000C8014AE050E00E94FE2FC80161E271E05A
:103720000E94AE2E6091A4027091A502C8014AE0E9
:1037300050E00E9411302E960FB6F894DEBF0FBEF7
:10374000CDBFCF91DF911F910F910895EF92FF921E
:103750000F931F93DF93CF93CDB7DEB7FC01EDB688
:10376000FEB6448155814F5F5F4F8DB79EB7841B76
:10377000950B0FB6F8949EBF0FBE8DBF0DB71EB749
:103780000F5F1F4FCF01B80120E030E00E945A3296
:10379000C8010E944F040FB6F894FEBE0FBEEDBEE6
:1037A000CF91DF911F910F91FF90EF9008952F928D
:1037B0003F924F925F926F927F928F929F92AF92C1
:1037C000BF92CF92DF92EF92FF920F931F93DF93FE
:1037D000CF93CDB7DEB7A0970FB6F894DEBF0FBE7C
:1037E000CDBF8E010F5F1F4FC80164EB73E00E94D5
:1037F0007F34C8010E94A61B2091890230918A0261
:10380000442737FD4095542F0E9421376D8F7E8FBE
:103810008F8F98A3C8010E9495348E01085F1F4FB7
:10382000C8016BEB73E00E947F34C8010E94A61BA5
:103830002091890230918A02442737FD4095542F08
:103840000E9421371B012C01C8010E9495348E0172
:10385000015F1F4FC80162EC73E00E947F34C80112
:103860000E94FF17AA2797FDA095BA2F20918902E1
:1038700030918A02442737FD4095542FBC01CD0179
:103880000E9421373B014C015B01C8010E94953425
:103890008E010A5E1F4FC80169EC73E00E947F34FD
:1038A000C8010E94FF177C01C8010E9495346091F5
:1038B0009F027091A0028091A1029091A202A301A7
:1038C0000E94AA06AC01C7016FEF70E00E94DD06FE
:1038D0007C01CC24B7FCC094DC2CC601B5010E944D
:1038E000A5352DEC3CEC4CE85FE30E9459360E9474
:1038F00072355B016C016D8D7E8D8F8D98A1A2015B
:10390000910185010E94560E0E94BA0AA0960FB638
:10391000F894DEBF0FBECDBFCF91DF911F910F9105
:10392000FF90EF90DF90CF90BF90AF909F908F90DF
:103930007F906F905F904F903F902F9008952F92BF
:103940003F924F925F926F927F928F929F92AF922F
:10395000BF92CF92DF92EF92FF920F931F93DF936C
:10396000CF93CDB7DEB7A6970FB6F894DEBF0FBEE4
:10397000CDBF8E010F5F1F4FC80164EB73E00E9443
:103980007F34C8010E94A61B2091890230918A02CF
:10399000442737FD4095542F0E9421376BA37CA309
:1039A0008DA39EA3C8010E9495348E01085F1F4F0E
:1039B000C8016BEB73E00E947F34C8010E94A61B14
:1039C0002091890230918A02442737FD4095542F77
:1039D0000E9421371B012C01C8010E9495348E01E1
:1039E000015F1F4FC80162EC73E00E947F34C80181
:1039F0000E94FF17AA2797FDA095BA2F2091890250
:103A000030918A02442737FD4095542FBC01CD01E7
:103A10000E9421376B017C017AA369A3C8010E942F
:103A200095348E010A5E1F4FC80169EC73E00E9455
:103A30007F34C8010E94FF1798A38F8FC8010E948E
:103A40009534C60162E070E00E944C374B01CB0117
:103A5000880F991F69A07AA0681A790A80919D023F
:103A600090919E020197C1F480E393E00E9473223B
:103A70007B018C018DE593E00E9473225B016C0158
:103A80006BA17CA18DA19EA1A20191010E945B0668
:103A90008093A4021092A5022091A4023091A50265
:103AA00022303105F9F49401442737FD4095542F15
:103AB000ABA0BCA0CDA0DEA0A21AB30AC40AD50A4E
:103AC000C301AA2797FDA095BA2FA80EB91ECA1E3A
:103AD000DB1E6BA07CA08DA09EA0620E731E841EB8
:103AE000951E3DC023303105C9F49401442737FDAC
:103AF0004095542F82017101E21AF30A040B150B51
:103B0000C301AA2797FDA095BA2FE80EF91E0A1F38
:103B10001B1F220E331E441E551E32C0C401AA278D
:103B200097FDA095BA2FA301662757FD6095762FC4
:103B300024303105B9F4ABA0BCA0CDA0DEA0A80E06
:103B4000B91ECA1EDB1EA41AB50AC60AD70A6BA084
:103B50007CA08DA09EA0681A790A8A0A9B0A82011D
:103B6000710114C07C018D01E20CF31C041D151DB4
:103B7000E41AF50A060B170B281A390A4A0A5B0AD7
:103B80006BA07CA08DA09EA06401530160919F0258
:103B90007091A0028091A1029091A20249A15AA124
:103BA0000E94AA06AC018F8D98A16FEF70E00E9471
:103BB000DD069E8F8D8FC601B501A80197010E9479
:103BC000270D8D8D9E8D02974CF089A19AA1BC0185
:103BD0004D8D5E8D2091A4020E94A20DC401B301FF
:103BE000A20191010E94270D0E94BA0AA6960FB663
:103BF000F894DEBF0FBECDBFCF91DF911F910F9123
:103C0000FF90EF90DF90CF90BF90AF909F908F90FC
:103C10007F906F905F904F903F902F900895CF933B
:103C2000DF93EC0168E074E00E941533882319F0FB
:103C30000E943B16C7C0CE016CE574E00E941533AC
:103C4000882319F00E944219BDC0CE016FE074E0D4
:103C50000E941533882319F00E94AF16B3C0CE011D
:103C600066E174E00E941533882319F00E945D1705
:103C7000A9C0CE016DE174E00E941533882319F0CC
:103C80000E94F8169FC0CE016DE874E00E941533C3
:103C9000882319F00E949B1795C0CE0164E974E057
:103CA0000E941533882319F00E9436178BC0CE016D
:103CB00064E274E00E941533882319F00E949F1C6F
:103CC00081C0CE016BE274E00E941533882319F0A5
:103CD0000E94D71B77C0CE0162E374E00E941533C7
:103CE000882319F00E944D1B6DC0CE0169E374E07A
:103CF0000E941533882319F00E94201A63C0CE0158
:103D000067E474E00E941533882319F00E9430188C
:103D100059C0CE016EE474E00E941533882319F077
:103D20000E941F0F4FC0CE0165E574E00E9415335D
:103D3000882319F00E94490F45C0CE0163E674E064
:103D40000E941533882319F00E94FC1A3BC0CE0153
:103D50006AE674E00E941533882319F00E94DF148C
:103D600031C0CE016FE774E00E941533882319F04B
:103D70000E94C21727C0CE0166E874E00E94153386
:103D8000882319F00E94CB1A1DC0CE016BE974E0A4
:103D90000E941533882319F00E949F1A13C0CE0188
:103DA00061E774E00E941533882319F00E945B15C7
:103DB00009C0CE0168E774E00E941533882319F02A
:103DC0000E94241581E0DF91CF910895CF93DF9376
:103DD000EC010E940F1E882329F4CE010E94F015E9
:103DE0000E94E60ADF91CF9108956F927F928F92A1
:103DF0009F92AF92BF92CF92DF92EF92FF920F937A
:103E00001F93DF93CF93CDB7DEB727970FB6F89404
:103E1000DEBF0FBECDBF4C01FC0164807580AA24BB
:103E2000BB2400E010E0EE24FF246E010894C11CC6
:103E3000D11C3DC0C401B7010E94C7318C32A1F52D
:103E4000C601B401A50197010E9415340230110585
:103E5000B9F0033011053CF40115110559F001309A
:103E60001105C9F40AC00330110569F004301105C9
:103E700091F40CC08DEA93E00BC084EB93E008C092
:103E80008BEB93E005C082EC93E002C089EC93E0F9
:103E9000B6010E94683457010894A11CB11C0F5F41
:103EA0001F4FC6010E9495340894E11CF11CE614D2
:103EB000F7040CF4BFCF10930703009306038CE5BF
:103EC00095E065EB72E00E94AE2E8CE595E06DEA20
:103ED00073E00E94F7308CE595E06FEA72E00E9493
:103EE000AE2E8CE595E064EB73E00E94F7308CE534
:103EF00095E069EA72E00E94AE2E8CE595E06BEBEE
:103F000073E00E94F7308CE595E063EA72E00E946E
:103F1000AE2E8CE595E062EC73E00E94F7308CE504
:103F200095E06DE972E00E94AE2E8CE595E069ECBB
:103F300073E00E942A3127960FB6F894DEBF0FBEB9
:103F4000CDBFCF91DF911F910F91FF90EF90DF9048
:103F5000CF90BF90AF909F908F907F906F9008957B
:103F60005F926F927F928F929F92AF92BF92CF9209
:103F7000DF92EF92FF920F931F93DF93CF93CDB712
:103F8000DEB7C655D0400FB6F894DEBF0FBECDBF2A
:103F9000782E692EAA24BB24F4E28F2E912C8C0E4D
:103FA0009D1E19C08CE595E00E94B12D182F6FE081
:103FB00070E080E090E00E94462BF401EA0DFB1DCA
:103FC00010831A3029F48CE595E00E94DA2D0AC09E
:103FD0000894A11CB11C8CE595E00E94802D181658
:103FE000190604F3BE016C5D7F4FA60EB71EF501E6
:103FF0001082872D962D0E94E2338E010F5F1F4F96
:10400000C80163E772E00E94E233872D962DB80164
:104010000E944C325C01C8010E949534FFEFAF163C
:10402000FFEFBF0609F460C0552453945092E40298
:10403000E8E0EE2EF12CEC0EFD1EA5014F5F5F4F68
:10404000C701672D762D0E945C348E01015F1F4FE2
:10405000C801B7010E947F34C8010E94A61B6B01F2
:104060007C01C8010E9495348E010A5E1F4FC80171
:10407000672D762D40E050E095010E941534872D84
:10408000962DB8010E946834C8010E9495348E01B3
:10409000035E1F4FC801672D762D0E947F34C80133
:1040A0000E94760A4B015C01C8010E9495348C1471
:1040B0009D04AE04BF0419F45092170310C08CE5A0
:1040C00095E062ED72E00E94AE2E8CE595E0B501C0
:1040D000A4012AE030E00E94EA2F10921703CE01DB
:1040E00008960E94953404C01092E40210921703BF
:1040F000872D962DCA5ADF4F0FB6F894DEBF0FBE3C
:10410000CDBFCF91DF911F910F91FF90EF90DF9086
:10411000CF90BF90AF909F908F907F906F905F9067
:1041200008959F92AF92BF92CF92DF92EF92FF924B
:104130000F931F93DF93CF93CDB7DEB72E970FB6B4
:10414000F894DEBF0FBECDBF6C010E94122B5B0145
:104150008E010F5F1F4FC80164E071E00E94E233DF
:10416000A8E0EA2EF12CEC0EFD1E902E012F1BC0B4
:104170000E94122B6A197B092091970230919802B4
:10418000261737072CF40E94E60A0E94122B5B01C7
:10419000C7010E94B01F892D902FB7010E9468347B
:1041A000C7010E9495348D819E81892B09F38091EE
:1041B000E402882361F080911703882341F40E9470
:1041C000DF0AC60164E071E00E94E2331AC00E9477
:1041D000122B0E94122B60930803709309038093A3
:1041E0000A0390930B0360930C0370930D03809369
:1041F0000E0390930F03C601BE016F5F7F4F0E94B5
:104200007F34CE0101960E949534C6012E960FB6DA
:10421000F894DEBF0FBECDBFCF91DF911F910F91FC
:10422000FF90EF90DF90CF90BF90AF909F90089558
:10423000EF92FF920F931F93DF93CF93CDB7DEB72B
:1042400027970FB6F894DEBF0FBECDBF7C0161E0AB
:1042500074E00E948732882371F08E010F5F1F4F38
:10426000C801B7010E947F34C8010E94F51EC80131
:104270000E94953481E027960FB6F894DEBF0FBEFA
:10428000CDBFCF91DF911F910F91FF90EF900895D7
:10429000CF92DF92FF920F931F93DF93CF93CDB70F
:1042A000DEB72E970FB6F894DEBF0FBECDBF6C0100
:1042B0008E010F5F1F4FC801B6010E947F34C801F5
:1042C0000E941821F82EC8010E949534FF2079F031
:1042D0008E01085F1F4FC80160E173E00E947F34C8
:1042E000C8010E94E61EC8010E94953406C08CE5F4
:1042F00095E06EEB72E00E94F12EC60164E071E081
:104300000E94FC33109217030E94E60A2E960FB605
:10431000F894DEBF0FBECDBFCF91DF911F910F91FB
:10432000FF90DF90CF900895EF92FF920F931F932D
:10433000DF93CF93CDB7DEB727970FB6F894DEBFE4
:104340000FBECDBF8E010F5F1F4FC8010E9491208D
:10435000B0E1EB2EB3E0FB2EC701B8010E94683438
:10436000C8010E949534C7010E94482127960FB6C4
:10437000F894DEBF0FBECDBFCF91DF911F910F919B
:10438000FF90EF900895AF92BF92CF92DF92EF929D
:10439000FF920F931F930CE515E0C80140E051EE2A
:1043A00060E070E00E94FA2CC80169EE72E00E94A1
:1043B000AE2EC8010E94D12E0E94A6120E94D70ED6
:1043C00000E3A02E03E0B02E40918B0250918C02AE
:1043D00060918D0270918E02C5010E943D23409133
:1043E0008F02509190026091910270919202C501EA
:1043F0000E9435231DE5C12E13E0D12E40918B0282
:1044000050918C0260918D0270918E02C6010E94C3
:104410003D2340918F0250919002609191027091E2
:104420009202C6010E943523609194027091950218
:10443000882777FD8095982F0E94A53520918502C9
:104440003091860240918702509188020E940A357D
:104450007B018C016091830270918402882777FD33
:104460008095982F0E94A5359B01AC01C801B7012A
:104470000E9459360E9472357B018C01C501B8013A
:10448000A7010E944523C601B801A7010E94452348
:1044900083EF93E060ED73E00E9468340E94E60AC7
:1044A0000E94260F64EF71E080E090E00E94462BAE
:1044B0000E94BA0A1F910F91FF90EF90DF90CF906A
:1044C000BF90AF900895FC012385348545855685BE
:1044D00087819085A185B285281B390B4A0B5B0B20
:1044E000B901CA010895FC016781708581859285B3
:1044F0000895FC0185EC92E09183808312821782FB
:10450000108611861286138614861586168680E01C
:1045100090E0A0E0B0E08787908BA18BB28B80E029
:1045200090E0A0E8BFE3838B948BA58BB68B878B41
:10453000908FA18FB28F138E148E158E168E81E000
:1045400090E094A383A315A216A28FEF80A7178EE5
:1045500010A211A212A2138214821582168272A7CF
:1045600061A754A743A70895AF92BF92CF92DF925D
:10457000EF92FF920F931F93CF93DF93EC017A0199
:104580008B01CB01BA012F85388949895A890E944C
:104590000635882309F44CC0C801B70120E030E09B
:1045A00040E050E00E945536181664F4AB88BC8891
:1045B000CD88DE88C801B701A60195010E94553655
:1045C0001816E4F0C801B70120E030E040E050E008
:1045D0000E9406358823BCF48B899C89AD89BE89ED
:1045E0005C016D01D7FAD094D7F8D094C801B70117
:1045F000A60195010E94063588232CF4AF86B88A5F
:10460000C98ADA8A04C0EF86F88A098B1A8B60E0BF
:1046100074E284E799E42F85388949895A890E9490
:104620000A359F770E9477356B8F7C8F8D8F9E8F99
:10463000DF91CF911F910F91FF90EF90DF90CF907E
:10464000BF90AF9008950F931F938C01DC01ED9103
:10465000FC910484F585E02D0995AB01BC01C801EE
:104660000E94B4221F910F910895FC01478B508F37
:10467000618F728F0E9423230895FC01438B548B1A
:10468000658B768B0E9423230895FC014783508716
:104690006187728743875487658776870E942323C3
:1046A0000895FC0143875487658776870E942323FA
:1046B0000895FC0187819085A185B285840F951F9F
:1046C000A61FB71F83879487A587B687CF010E944F
:1046D00023230895DC0112968C9112978230E1F029
:1046E000833028F4882341F0813071F50EC0843086
:1046F000D1F0883049F520C0ED91FC9111970280EE
:10470000F381E02DCD0109950895ED91FC9111976C
:104710000480F581E02D0DC0ED91FC91119706808C
:10472000F781E02D06C0ED91FC9111970084F18591
:10473000E02DCD0109950895ED91FC91119702842A
:10474000F385E02DCD0109950895CF93DF93EC011A
:104750006F85788989899A8920E030E040E050E0CF
:104760000E94553618161CF4E9A5FAA502C0EBA55F
:10477000FCA50995DF91CF910895CF93DF93EC01CC
:1047800070E0677070706330710559F164307105C5
:104790004CF461307105D9F062307105DCF4672B9F
:1047A00079F053C065307105B1F16530710524F1C0
:1047B00066307105B9F16730710509F046C035C042
:1047C0008B8161E00E94232C8C8160E01BC08B8177
:1047D00061E002C08B8160E00E94232C8C8160E04C
:1047E00006C08B8160E00E94232C8C8161E00E94D6
:1047F000232C8D8161E00AC08B8160E00E94232C14
:104800008C8161E00E94232C8D8160E00E94232C2A
:104810008E8160E018C08B8160E00E94232C8C8127
:1048200061E009C08B8160E002C08B8161E00E9481
:10483000232C8C8160E00E94232C8D8160E00E94FB
:10484000232C8E8161E00E94232CDF91CF9108956B
:10485000CF93DF93EC0170E063707070613071058D
:10486000A1F0623071051CF4672B41F034C0623056
:104870007105D1F06330710571F51DC08B8161E068
:104880000E94232C8C8160E006C08B8160E00E9436
:10489000232C8C8161E00E94232C8D8161E00E9499
:1048A000232C8E8160E015C08B8160E00E94232C58
:1048B0008C8161E006C08B8161E00E94232C8C8199
:1048C00060E00E94232C8D8160E00E94232C8E8169
:1048D00061E00E94232CDF91CF910895CF93DF9365
:1048E000EC0170E0637070706130710581F06230CE
:1048F00071051CF4672B41F01CC06230710571F02A
:1049000063307105B1F40DC08B8160E002C08B8112
:1049100061E00E94232C8C8161E009C08B8161E001
:1049200002C08B8160E00E94232C8C8160E00E9499
:10493000232CDF91CF9108951F93CF93DF93EC0148
:1049400010E06F85788989899A8920E030E040E01D
:1049500050E00E94553618160CF411E08DA118276E
:104960008C81612F0E94232C6EA181E068278B81AE
:104970000E94232C8BA19CA10E949F2B8B816EA156
:104980000E94232CDF91CF911F9108952F923F9287
:104990004F925F926F927F928F929F92AF92BF924F
:1049A000CF92DF92EF92FF920F931F93DF93CF93FB
:1049B00000D000D000D0CDB7DEB79E838D83FC0140
:1049C000638474848584968487819085A185B2856B
:1049D000681A790A8A0A9B0A59F40F2EF0E0EF2E22
:1049E000F0E0FF2EF0E00F2FF0E01F2FF02DB4C00D
:1049F000ED81FE81A784B088C188D288C601B50147
:104A0000A60195010E9459367B018C01C601B501B2
:104A100020E030E040E050E00E940635882324F496
:104A200017FB109517F91095ED81FE812788308CC2
:104A3000418C528CC201B101A20191010E94A234A9
:104A400069837A838B839C83C801B70129813A816A
:104A50004B815C810E940A357B018C01C401B3014A
:104A60000E94A5359B01AC01C801B7010E94063523
:104A70008823B4F5C601B50120E030E040E050E005
:104A80000E940635882339F469817A818B819C8163
:104A90000E94C0360DC0C201B101A60195010E945D
:104AA0000A359B01AC015F77C601B5010E94A234B3
:104AB0007B018C01ED81FE81D388C488B588A688EE
:104AC0002D2D3C2D4B2D5A2D0E94553618160CF0CD
:104AD00043C08D2D9C2DAB2DBA2D7C018D013CC08A
:104AE000C601B50120E030E040E050E00E9406350C
:104AF000882369F469817A818B819C810E94C03608
:104B00007B018C0117FB109517F910950FC0C2019E
:104B1000B101A60195010E940A359B01AC015F77A6
:104B2000C601B5010E94A1347B018C01ED81FE819B
:104B300083899489A589B6895C016D01D7FAD094DF
:104B4000D7F8D094C801B701A60195010E94063597
:104B5000882314F486017501B701C80126960FB6A3
:104B6000F894DEBF0FBECDBFCF91DF911F910F91A3
:104B7000FF90EF90DF90CF90BF90AF909F908F907D
:104B80007F906F905F904F903F902F900895AF92DD
:104B9000BF92CF92DF92EF92FF920F931F93CF932A
:104BA000DF93EC010E94202B5B016C012F8D38A15B
:104BB00049A15AA18B8D9C8DAD8DBE8D820F931F07
:104BC000A41FB51F82179307A407B50730F0A816D6
:104BD000B906CA06DB0660F406C0A816B906CA06FE
:104BE000DB0608F43FC0A216B306C406D506D0F50E
:104BF000EF84F88809891A89C801B70120E030E0FC
:104C000040E050E00E945536181644F48F81988594
:104C1000A985BA850196A11DB11D11C0C801B701B2
:104C200020E030E040E050E00E94063588235CF44C
:104C30008F819885A985BA850197A109B1098F83CC
:104C40009887A987BA87E881F9816F816770019099
:104C5000F081E02DCE010995AF8EB8A2C9A2DAA2EB
:104C600081E001C080E0DF91CF911F910F91FF9013
:104C7000EF90DF90CF90BF90AF900895EF92FF92AA
:104C80000F931F93FC0123853485458556858781C5
:104C90009085A185B285E784F08801891289821701
:104CA0009307A407B50724F4D801C701BF7704C050
:104CB000D801C701BF77B0588787908BA18BB28B83
:104CC000238534854585568587819085A185B28564
:104CD000281739074A075B0711F480E003C0CF01AA
:104CE0000E94C7251F910F91FF90EF900895CF93D9
:104CF000DF93EC012B853C854D855E858F81988502
:104D0000A985BA85281739074A075B0711F480E09F
:104D100009C0CE010E94C725882319F0CE010E9448
:104D2000232381E0DF91CF910895CF93DF93EC01AE
:104D3000CE010E9477268823D9F7DF91CF9108957D
:104D40000F931F938C01FC014387548765877687F7
:104D50000E942323C8010E9495261F910F91089558
:104D6000FC018091A2048C3090F480838F5F80934B
:104D7000A204815090E0FC01EE0FFF1FE80FF91F25
:104D8000ED55FB4F88EB9BE09283818308958FEF75
:104D900080830895DC018C9190E0FC01EE0FFF1FF1
:104DA000E80FF91FED55FB4F80818F7B80838C913D
:104DB0006CE00E94403790E0AC01440F551F480F53
:104DC000591F440F551F440F551F20E030E0C90103
:104DD000840F951FFC01EE0FFF1FE80FF91FED5523
:104DE000FB4F808186FD05C02F5F3F4F2C30310582
:104DF00071F70895FC0120812C30B8F58181992745
:104E000087FD909548E850E0481B590B440F551F0B
:104E1000440F551F6417750784F08281992787FD19
:104E2000909548E552E0481B590B440F551F440F1D
:104E3000551F641775070CF4AB0142505040CA016E
:104E4000AA2797FDA095BA2F880F991FAA1FBB1FED
:104E50004FB7F89430E0F901EE0FFF1FE20FF31F98
:104E6000ED55FB4F928381834FBF0895AF92BF9260
:104E7000CF92DF92EF92FF920F931F93CF93DF9326
:104E8000EC019B0182E0603278070CF048C077FFAC
:104E900003C020E030E005C0653B710514F024EB51
:104EA00030E000D000D0B901882777FD8095982F99
:104EB0002981332727FD3095E8E8AE2EB12CA21AC0
:104EC000B30AAA0CBB1CAA0CBB1CCC24B7FCC09414
:104ED000DC2CEA81FF27E7FDF09528E532E02E1B68
:104EE0003F0B220F331F220F331F442737FD4095FE
:104EF000542FEDB7FEB7218332834383548320E0E0
:104F000030E040E050E004EBE02EF12C012D112DBB
:104F10000E943E319B010F900F900F900F90CE0199
:104F2000B9010E94FA26DF91CF911F910F91FF9056
:104F3000EF90DF90CF90BF90AF900895CF92DF9227
:104F4000EF92FF921F93CF93DF93EC01162F7A011C
:104F5000690188818C3008F064C0862F61E00E946E
:104F6000E42B888190E0FC01EE0FFF1FE80FF91F92
:104F7000ED55FB4F1F738081807C812B808380E205
:104F800092E08E199F0964E070E00E944C376983BB
:104F900080E699E08C199D0964E070E00E944C372E
:104FA0006A83A8818A2F6CE00E944037682F70E0E6
:104FB000AB01440F551F460F571F440F551F440F99
:104FC000551F20E030E0C901840F951FFC01EE0F52
:104FD000FF1FE80FF91FED55FB4F808186FD15C0BF
:104FE0002F5F3F4F2C30310571F724C010928000A5
:104FF00082E0809381001092850010928400B19A23
:1050000080916F00826080936F008A2F90E0FC0196
:10501000EE0FFF1FE80FF91FED55FB4F80818064F5
:1050200080838881DF91CF911F91FF90EF90DF9077
:10503000CF900895672BD1F2E8CF40E252E020E60E
:1050400039E00E949E2708951F920F920FB60F928B
:1050500011242F933F934F935F936F937F938F937D
:105060009F93AF93BF93EF93FF938091C70487FF04
:1050700005C010928500109284002BC02091C704B7
:10508000332727FD30958091A20490E02817390737
:1050900004F58091C704992787FD9095FC01EE0FD8
:1050A000FF1FE80FF91FED55FB4F808186FF11C0F0
:1050B0008091C704992787FD9095FC01EE0FFF1F93
:1050C000E80FF91FED55FB4F80818F7360E00E9460
:1050D000232C8091C7048F5F8093C7042091C7045D
:1050E000332727FD30958091A20490E028173907D7
:1050F0000CF04EC08091C7048C300CF049C0209158
:105100008400309185008091C704992787FD909590
:10511000FC01EE0FFF1FE80FF91FED55FB4F8181DA
:105120009281280F391F3093890020938800809145
:10513000C704992787FD9095FC01EE0FFF1FE80F2C
:10514000F91FED55FB4F808186FF2BC08091C7046E
:10515000992787FD9095FC01EE0FFF1FE80FF91FBF
:10516000ED55FB4F80818F7361E00E94232C19C0A5
:1051700080E49CE905C080918400909185000496AC
:1051800090938900809388008FEF8093C70409C0B3
:105190008091840090918500049680549C4940F34E
:1051A000EACFFF91EF91BF91AF919F918F917F9146
:1051B0006F915F914F913F912F910F900FBE0F9084
:1051C0001F901895F999FECF72BD61BDF89A80B510
:1051D0000895F999FECF1FBA72BD61BD40BD0FB6EB
:1051E000F894FA9AF99A0FBE08950895E0EBF0E06A
:1051F00090819368908387708093B1001092B30080
:105200008BE061E00E94E42B0895E0EBF0E09081F8
:105210009362908387708093B1001092B40083E012
:1052200061E00E94E42B0895CF93DF938CE060E06F
:105230000E94232C88E060E00E94232CC7E0D0E08D
:1052400084E060E00E94232C8091CA0490E00C2E40
:1052500002C0959587950A94E2F780FF03C088E025
:1052600061E002C088E060E00E94232C84E061E0FD
:105270000E94232C21978FEFCF3FD80709F78CE0AE
:1052800061E00E94232CDF91CF9108950F931F932B
:10529000CF93DF93EC01142F8A81813029F404E04D
:1052A00042E058E070E108C0823011F080E0E0C0D8
:1052B00000E241E050E870E4113041F49B85892F11
:1052C00086958695869580FF10C009C01230A1F49E
:1052D0009B85892F86958695869580FD06C06130D1
:1052E00011F4985F05C0985003C0613019F4905FC5
:1052F0009B8752C09051FCCF133041F48B856130B5
:1053000011F4885F01C088508B8746C0143009F0C3
:1053100043C08B85613011F48F5F01C081508B8752
:10532000AB85AF73AB87A03148F4B0E0E0ECF2E0BE
:10533000EA1BFB0B2081A055BD4F19C08A2F80515D
:10534000803148F48A2F90E0FC01E056FD4F208127
:10535000E0EDF2E01DC08A2F8052803150F4B0E0C1
:10536000E0EEF2E0EA1BFB0B2081A057BD4F8C91D1
:1053700015C08A2F8053803118F080E020E00EC0E5
:105380008A2F90E0FC01E058FD4F2081E0EFF2E031
:10539000E81BF90B808102C08FEF2FEF3B853F7335
:1053A0003B879A81913029F42093B3008093B40015
:1053B00004C0923011F427BD88BD242F202B672F05
:1053C000652B962F922B90958091CA0498239093E9
:1053D000CA04143019F5303118F4922B9093CA0492
:1053E000832F8051803130F4452B8091CA04842B67
:1053F0008093CA04832F8052803130F4572B8091E0
:10540000CA04852B8093CA043053303160F5702B69
:105410008091CA04872B8093CA0425C0832F869568
:10542000869586958330B1F0843028F4813071F010
:10543000823070F409C0853081F0853060F08630AC
:1054400079F0873081F40BC0902B0BC0922B09C0F0
:10545000942B07C0542B952B04C0962B02C0702BA5
:10546000972B9093CA0489EC94E00E9414298B85B1
:10547000DF91CF911F910F9108950F931F938C018E
:105480008CE061E00E94E42B87E061E00E94E42B65
:1054900088E061E00E94E42B84E061E00E94E42B5C
:1054A0001092CA04C8010E94142987E060E00E949B
:1054B000232C1F910F910895DF92EF92FF920F938B
:1054C0001F938C017B01D42E89EC94E00E943D2A2D
:1054D000F801F182E082D2821386F1E0DF1629F52D
:1054E0008091CA04817E8093CA0489EC94E00E9472
:1054F00014298BE061E00E94E42B83E061E00E94CC
:10550000E42B8BE061E00E94232C83E061E00E94A9
:10551000232C81E00E94F62881E00E9405298FEF6C
:105520008093B3008093B4002FC082E0D81661F559
:105530008091CA048E718093CA0489EC94E00E9421
:10554000142985E061E00E94E42B86E061E00E947E
:10555000E42B85E061E00E94232C86E061E00E945C
:10556000232C84B5836884BD17BC86E061E00E946B
:10557000E42B84B5836284BD18BC85E061E00E94A1
:10558000E42B8FEF87BD88BD1F910F91FF90EF90A7
:10559000DF9008951F920F920FB60F9211242F9350
:1055A0003F938F939F93AF93BF938091CF0490913C
:1055B000D004A091D104B091D2043091D3040196CB
:1055C000A11DB11D232F2D5F2D3720F02D570196E2
:1055D000A11DB11D2093D3048093CF049093D004D8
:1055E000A093D104B093D2048091CB049091CC04C9
:1055F000A091CD04B091CE040196A11DB11D809360
:10560000CB049093CC04A093CD04B093CE04BF916F
:10561000AF919F918F913F912F910F900FBE0F905F
:105620001F9018958FB7F8942091CF043091D00433
:105630004091D1045091D2048FBFB901CA0108959D
:105640009FB7F8942091CB043091CC044091CD04C5
:105650005091CE0486B5A89B06C08F3F21F02F5FE6
:105660003F4F4F4F5F4F9FBF542F432F322F222763
:10567000280F311D411D511D82E0220F331F441F91
:10568000551F8A95D1F7B901CA0108959B01AC0154
:105690007FB7F8948091CB049091CC04A091CD0475
:1056A000B091CE0466B5A89B05C06F3F19F0019676
:1056B000A11DB11D7FBFBA2FA92F982F8827860F54
:1056C000911DA11DB11D62E0880F991FAA1FBB1F6C
:1056D0006A95D1F7BC012DC0FFB7F8948091CB0437
:1056E0009091CC04A091CD04B091CE04E6B5A89BD6
:1056F00005C0EF3F19F00196A11DB11DFFBFBA2FE4
:10570000A92F982F88278E0F911DA11DB11DE2E0B2
:10571000880F991FAA1FBB1FEA95D1F7861B970B0D
:10572000885E9340C8F2215030404040504068515C
:105730007C4F211531054105510571F608950197FA
:1057400039F0880F991F880F991F02970197F1F779
:105750000895789484B5826084BD84B5816084BDE9
:1057600085B5826085BD85B5816085BDEEE6F0E0DA
:10577000808181608083E1E8F0E010828081826036
:105780008083808181608083E0E8F0E080818160B7
:105790008083E1EBF0E0808184608083E0EBF0E0E7
:1057A000808181608083EAE7F0E08081846080838B
:1057B0008081826080838081816080838081806835
:1057C00080831092C1000895CF93DF93482F50E05B
:1057D000CA01865D9C4FFC0134914A5E5C4FFA0120
:1057E0008491882369F190E0880F991FFC01E850AB
:1057F000FD4FA591B491FC01EE5FFC4FC591D49192
:10580000662351F42FB7F8948C91932F90958923A8
:105810008C93888189230BC0623061F42FB7F89490
:105820008C91932F909589238C938881832B8883E7
:105830002FBF06C09FB7F8948C91832B8C939FBF8A
:10584000DF91CF910895482F50E0CA01825C9C4FB0
:10585000FC012491CA01865D9C4FFC0194914A5E33
:105860005C4FFA013491332309F440C0222351F1F3
:10587000233071F0243028F42130A1F0223011F5CA
:1058800014C02630B1F02730C1F02430D9F404C060
:10589000809180008F7703C0809180008F7D8093FE
:1058A000800010C084B58F7702C084B58F7D84BD21
:1058B00009C08091B0008F7703C08091B0008F7DC8
:1058C0008093B000E32FF0E0EE0FFF1FEE5FFC4F80
:1058D000A591B4912FB7F894662321F48C919095FB
:1058E000892302C08C91892B8C932FBF0895089532
:1058F0001F920F920FB60F9211242F933F934F9345
:105900008F939F93EF93FF934091C60020911405CE
:10591000309115052F5F3F4F2F7330708091160522
:10592000909117052817390759F0E0911405F09167
:105930001505EC52FB4F4083309315052093140559
:10594000FF91EF919F918F914F913F912F910F90E8
:105950000FBE0F901F901895E0916805F0916905B2
:10596000E05CFF4F8191919120813181821B930BEB
:105970008F739070892B11F00E94772C08951F92DD
:105980000F920FB60F9211242F933F938F939F93F3
:10599000EF93FF93209158053091590580915A0556
:1059A00090915B052817390731F48091C1008F7DF4
:1059B0008093C10014C0E0915A05F0915B05E85E48
:1059C000FA4F208180915A0590915B0501968F7363
:1059D000907090935B0580935A052093C600FF91C9
:1059E000EF919F918F913F912F910F900FBE0F904C
:1059F0001F901895AF92BF92DF92EF92FF920F9394
:105A00001F93CF93DF93EC017A018B01DD244030AB
:105A100081EE580780E0680780E0780711F0DD2408
:105A2000D39491E0A92EB12CEC89FD89DD2069F099
:105A3000C5010E8C02C0880F991F0A94E2F780837B
:105A400060E079E08DE390E005C0108260E874E8E2
:105A50008EE190E0A80197010E945F37215030400D
:105A600040405040569547953795279580E1203026
:105A7000380720F0DD2011F0DD24D6CFE889F98940
:105A80003083EA89FB892083EE89FF89408121E008
:105A900030E0C9010A8C02C0880F991F0A94E2F70E
:105AA000482B4083EE89FF894081C9010B8C02C0DD
:105AB000880F991F0A94E2F7482B4083EE89FF89EB
:105AC0004081C9010C8C02C0880F991F0A94E2F72B
:105AD000482B4083EE89FF8980810D8C02C0220F04
